:020000040800F2
:1000000008040020D9010008E1010008E30100080C
:10001000E5010008E7010008E90100080000000010
:10002000000000000000000000000000110B0008AC
:10003000ED010008000000000F0B0008130B000882
:10004000F3010008F3010008F3010008F3010008C0
:10005000F3010008F3010008F3010008F3010008B0
:10006000F3010008F3010008F3010008F3010008A0
:10007000F3010008F3010008F3010008F301000890
:10008000F3010008F3010008F3010008F301000880
:10009000F3010008F3010008F3010008F301000870
:1000A000F3010008F3010008F3010008F301000860
:1000B000F3010008F3010008F3010008F301000850
:1000C000F3010008F3010008F3010008F301000840
:1000D000F3010008F3010008F3010008F301000830
:1000E000F3010008F3010008F3010008F301000820
:1000F000F3010008F3010008F3010008F301000810
:10010000F3010008F3010008F3010008F3010008FF
:10011000F3010008F3010008F3010008F3010008EF
:10012000F3010008F3010008F3010008F3010008DF
:10013000F30100080000000000000000F3010008C7
:10014000F3010008F3010008F3010008F3010008BF
:10015000F3010008F3010008F3010008F3010008AF
:10016000F3010008F3010008F3010008F30100089F
:10017000F3010008F3010008F3010008000000008B
:1001800000000000F3010008000000000000000073
:10019000F30100080000000000000000F301000867
:1001A000000000000000000000000000F301000853
:1001B000F3010008F3010008F3010008F30100084F
:1001C000F3010008DFF80CD000F068F800480047A1
:1001D000250C000808040020064880470648004710
:1001E000FEE7FEE7FEE7FEE7FEE7FEE7FEE7FEE7E7
:1001F000FEE7FEE7B10B0008C50100082DE9F05F3E
:100200000546002092469B46884606468146402485
:100210001BE0284641464746224600F02FF8534649
:100220005A46C01A914110D311461846224600F092
:1002300016F82D1A67EB01084F46224601200021CF
:1002400000F00DF817EB00094E41201EA4F1010447
:10025000DFDC484631462A464346BDE8F09F202A67
:1002600004DB203A00FA02F1002070479140C2F10D
:10027000200320FA03F3194390407047202A04DB3F
:10028000203A21FA02F00021704721FA02F3D0400F
:10029000C2F120029140084319467047064C074DB1
:1002A00006E0E06840F0010394E807009847103446
:1002B000AC42F6D3FFF78AFFA40C0008C40C000878
:1002C00031B500F0E7F8009C0546601C00D0641CC6
:1002D00000F0E0F8401BA042FAD338BD2DE9F84FFA
:1002E000DFF874B100224FF001084FF0030A4FF01D
:1002F0000F090BF1040E00BF0B6808FA02F423404B
:10030000A3426ED14D68022D01D0122D0ED1D50819
:1003100000EB850CDCF820505607F70E09FA07F6BB
:10032000B5430E69BE402E43CCF8206006685500E8
:100330000F790AFA05FC07F0030726EA0C06AF401E
:10034000374307604E68012E05D0022E03D0112ED0
:1003500001D0122E0ED18668CF6826EA0C06AF4077
:10036000374387604668A6430C79C4F30014944071
:1003700034434460C4688E6824EA0C04AE402643CB
:10038000C6604C68E40060D5344C256845F480456F
:100390002560246822F0030504F480440094304C66
:1003A0002E19D6F8084895072F0F09FA07F5AC4320
:1003B0002C4DA84201D100251FE02B4DA84201D1B0
:1003C00001251AE0294DA84201D1022515E0284D4A
:1003D000A84201D1032510E0264DA84202D10425F0
:1003E0000BE032E0244DA84201D1052505E0234D64
:1003F000A84201D1062500E00725BD402543C6F8E7
:100400000858DBF800405D464E689C43F60300D573
:100410001C432C60DEF8004075464E689C43B603D2
:1004200000D51C432C600C4D08352C684E689C434D
:10043000F60200D51C432C60074D0C352C684E6825
:100440009C43B60200D51C432C60521C102AFFF4BA
:1004500053AFBDE8F88F0000003C01404438024033
:100460000030014000000240000402400008024049
:10047000000C02400010024000140240001802402C
:1004800042694A40426170470AB18161704709047C
:10049000FBE70000014800687047000000000020F2
:1004A00002480168491C01607047000000000020FC
:1004B0000B4810B5016841F400710160016841F416
:1004C00080610160016841F480710160032000F0E7
:1004D00069F8002000F006F800F018F8002010BDC0
:1004E000003C024010B5044607484FF47A7100689A
:1004F000B0FBF1F000F0E3FA00222146501E00F0BC
:1005000031F8002010BD00000400002010B50320C9
:1005100000F048F8002211466FF00B0000F022F8BE
:10052000002211466FF00A0000F01CF8002211466C
:100530006FF0090000F016F800221146501F00F07D
:1005400011F800221146101F00F00CF8002211468D
:10055000901E00F007F80022BDE810401146501E22
:10056000AFF30080F0B40E4B1B680C46C3F30223BC
:10057000C3F10705042D00D90425191D072901D24F
:10058000002300E0DB1E012606FA05F1491E21408A
:1005900099409E40761E16403143F0BC00F0A7BA49
:1005A0000CED00E0064900F0070208684FF6FF0373
:1005B000184040EA0220034A1043086070470000D8
:1005C0000CED00E00000FA052DE9F0470E460500AD
:1005D00065D0DFF81481D8F80000F7B200F00F0002
:1005E000B04207D288F80070D8F8000000F00F0081
:1005F000B04254D128683D4C810712D5400703D53D
:10060000206840F4E05020602878000703D5206877
:1006100040F4604020602068A96820F0F0000843A2
:1006200020602878C0072DD0304968680839012833
:1006300012D0022813D0032811D009688907002995
:100640002DDA216821F0030101432160FFF722FF29
:10065000814641F2883A0EE009688903EFE70968AC
:100660008901ECE7FFF716FFA0EB0901514502D91C
:100670000320BDE8F0872068696800F00C00B0EB4B
:10068000810FEFD1D8F80010404601F00F01B142C0
:1006900007D90770006800F00F00B04201D00120B8
:1006A000E7E72878400705D52068E96820F4E0509E
:1006B000084320602878000706D52068296920F4BF
:1006C000604040EAC100206000F01CF82168084A40
:1006D000C1F30311515CC840064908600020FFF7D0
:1006E00001FF0020C5E70000003C0240083802403E
:1006F000940C0008040000200148006870470000C6
:1007000004000020224810B5006810F00C022148B7
:1007100015D04110042A11D01D4C241F082A0FD0D7
:100720000C2A0CD12268236802F03F025B0221D51B
:100730002068C0F38810A0FB010120E0084610BD2E
:100740002268236802F03F025B0205D52068C0F3EF
:100750008810A0FB010104E02168C1F38811A1FB0E
:1007600000010023FFF74AFD2168C1F30141491C44
:1007700049000AE02168C1F38811A1FB00010023B0
:10078000FFF73CFD2168C1F30271B0FBF1F010BD31
:10079000083802400024F4002DE9F84F0546DFF840
:1007A000F0A20078AAF10407C007A7F1040451D011
:1007B000DAF800105046C1F3810101290FD0016819
:1007C000C1F38101022902D13968490207D40068C6
:1007D000C0F38100032809D13868400206D520689B
:1007E000800337D56868002872D033E06868B0F5B8
:1007F000803F10D0B0F5A02F206810D020F48030BA
:100800002060206820F4802020606868A8B1FFF78D
:1008100041FE06460DE0206840F48030F4E740F4E5
:1008200080202060F7E700BFFFF734FE801B6428BC
:1008300075D820688003F7D50CE0FFF72BFE06463D
:1008400005E000BFFFF726FE801B6428F0D8206873
:100850008003F7D42878DFF83C8280074FF0010B43
:100860004FF0000944D5DAF80010504611F00C0F93
:100870000FD00168C1F38101022902D13968490210
:1008800007D50068C0F38100032809D13868400209
:1008900006D42068800713D5E868012818D10FE036
:1008A000E868B0B1C8F800B0FFF7F4FD064604E010
:1008B000FFF7F0FD801B0228BAD820688007F7D523
:1008C0002068296920F0F80040EAC10020600FE0AC
:1008D000DBE0C8F80090FFF7DDFD064605E000BF4D
:1008E000FFF7D8FD801B022819D820688007F7D4AD
:1008F0002878000724D56848696989B1C0F800B034
:10090000FFF7C8FD064604E0FFF7C4FD801B022880
:1009100005D85F486C3000688007F5D510E07AE0B4
:10092000C0F80090FFF7B6FD064604E0FFF7B2FD01
:10093000801B02286FD856486C3000688007F5D4B9
:100940002878400753D552483830016841F080512B
:100950000160006800F0805000905048016841F448
:1009600080710160FFF796FD064604E0FFF792FDF7
:10097000801B02284FD849480068C005F6D5444E70
:10098000A868683601280FD00528306810D020F0FC
:1009900001003060306820F004003060A868B8B111
:1009A000FFF778FD00900FE0306840F00100F4E7B9
:1009B00040F004003060F7E7FFF76CFD0099411A42
:1009C00041F28830814258D830688007F4D50EE073
:1009D000FFF760FD009007E0FFF75CFD0099411A0A
:1009E00041F28830814248D830688007F4D4A86941
:1009F00098B3DAF80010C1F38101022945D002282A
:100A0000C8F8609003D0FFF745FD054638E0FFF7D2
:100A100041FD064605E030E0FFF73CFD801B022863
:100A20002BD820688001F7D4F5E907010843E9686D
:100A30001B4A490802EB0141AA6841EA82110843B6
:100A4000297C40EA0160297D40EA01703860C8F8DD
:100A500060B0FFF71FFD054605E014E0FFF71AFD43
:100A6000401B022809D820688001F7D50BE000BFA1
:100A7000FFF710FD401B022802D90320BDE8F88FC4
:100A800020688001F4D40020F8E70120F6E7000098
:100A90000838024000004742800E47420070004084
:100AA0000000FFFF4FF0E0210428086903D020F088
:100AB00004000861704740F00400FAE7704710B581
:100AC000401EB0F1807F01D3012010BD4FF0E02423
:100AD00060610F21601700F00AF80020A061072074
:100AE0002061002010BD10B5FFF7E8FF10BD090719
:100AF000090E002806DA00F00F0000F1E02080F86F
:100B0000141D704700F1E02080F800147047704712
:100B1000704710B5FFF7C4FCBDE81040FFF7E3BF16
:100B200010B5214894B00024016841F08051016063
:100B3000006800F0805012901C48016821F4404188
:100B400041F4804101600068069400F44040129036
:100B50000220009001200390102004906846FFF7C7
:100B60001BFE00B1FEE70F20CDE90D044FF48050CD
:100B7000CDE90F4000210DA81194FFF725FD00B12C
:100B8000FEE7FFF7B9FD4FF47A71B0FBF1F0FFF724
:100B900096FF0420FFF786FF00221146501EFFF744
:100BA000E1FC14B010BD000040380240007000406D
:100BB0001048016841F4700101600F48016841F07C
:100BC000010101600C4A00210832116002680B4BE0
:100BD0001A400260031D0A4A1A60026822F4802249
:100BE000026005480C3001600249580680390860EF
:100BF0007047000088ED00E000380240FFFFF6FE7D
:100C00001030002402E008C8121F08C1002AFAD1DF
:100C100070477047002001E001C1121F002AFBD17C
:100C20007047000086B0FFF743FCFFF779FF1748D5
:100C30000025016841F0020101600068144C00F0D9
:100C400002004FF4804605902A4631462046FFF7C1
:100C50001BFC012280212046FFF716FC4FF4814047
:100C600000900120CDE90105694620460395FFF774
:100C700035FB80212046FFF703FC31462046FFF775
:100C8000FFFB6420FFF71CFBF3E700003038024055
:100C90000004024000000000000000000102030404
:100CA00006070809C40C0008000000200800000026
:100CB000040C0008CC0C0008080000200004000010
:0C0CC000140C0008000000000024F400E8
:04000005080001C529
:00000001FF
