:020000040800F2
:1000000090040020D90100087F100008930F000819
:100010007D100008C1020008CD110008000000009A
:10002000000000000000000000000000A310000815
:10003000C302000800000000A1100008A51000087D
:10004000F3010008F3010008F3010008F3010008C0
:10005000F3010008F3010008F3010008F3010008B0
:10006000F3010008F3010008F3010008F3010008A0
:10007000F3010008F3010008F3010008F301000890
:10008000F3010008F3010008F3010008F301000880
:10009000F3010008F3010008F3010008F301000870
:1000A000F3010008F3010008F3010008F301000860
:1000B000F3010008F3010008F3010008F301000850
:1000C000F3010008F3010008F3010008F301000840
:1000D000F3010008F3010008F3010008F301000830
:1000E000F3010008F3010008F3010008F301000820
:1000F000F3010008F3010008F3010008F301000810
:10010000F3010008F3010008F3010008F3010008FF
:10011000F3010008F3010008F3010008F3010008EF
:10012000F3010008F3010008F3010008F3010008DF
:10013000F30100080000000000000000F3010008C7
:10014000F3010008F3010008F3010008F3010008BF
:10015000F3010008F3010008F3010008F3010008AF
:10016000F3010008F3010008F3010008F30100089F
:10017000F3010008F3010008F3010008000000008B
:1001800000000000F3010008000000000000000073
:10019000F30100080000000000000000F301000867
:1001A000000000000000000000000000F301000853
:1001B000F3010008F3010008F3010008F30100084F
:1001C000F3010008DFF80CD000F068F800480047A1
:1001D00005120008900400200648804706480047A2
:1001E000FEE7FEE7FEE7FEE7FEE7FEE7FEE7FEE7E7
:1001F000FEE7FEE779110008C50100082DE9F05F70
:100200000546002092469B46884606468146402485
:100210001BE0284641464746224600F02FF8534649
:100220005A46C01A914110D311461846224600F092
:1002300016F82D1A67EB01084F46224601200021CF
:1002400000F00DF817EB00094E41201EA4F1010447
:10025000DFDC484631462A464346BDE8F09F202A67
:1002600004DB203A00FA02F1002070479140C2F10D
:10027000200320FA03F3194390407047202A04DB3F
:10028000203A21FA02F00021704721FA02F3D0400F
:10029000C2F120029140084319467047064C074DB1
:1002A00006E0E06840F0010394E807009847103446
:1002B000AC42F6D3FFF78AFF84120008A4120008AC
:1002C000FEE7704710B5087D012282403A48D0F819
:1002D000003243F00103C0F80032D0F8003223F4BA
:1002E0007C53C0F80032D0F800324C6A43EA042351
:1002F000C0F80032D0F81C329343C0F81C32CB69EE
:10030000B3B9D0F80C329343C0F80C328C894B68E7
:1003100064F31F434C6900EBC404C4F840320C89F9
:100320000B6864F31F434C6900EBC404C4F8443207
:10033000CB69012B16D1D0F80C321343C0F80C3224
:100340000C884B6864F31F434C6900EBC404C4F889
:1003500040320C89CB6864F31F434C6900EBC40442
:10036000C4F844328B69002BD0F8043205D0134313
:10037000C0F804320B6913B106E09343F8E7D0F8F4
:1003800014329343C0F814320B69012B04D1D0F816
:1003900014321343C0F81432096A012904D1D0F889
:1003A0001C121143C0F81C12D0F8001221F00101F8
:1003B000C0F80012002010BD006400402DE9F0419B
:1003C000040004D094F83C00002518B107E0012097
:1003D000BDE8F08184F83D50204600F093F80220FB
:1003E00084F83C002068016821F002010160206867
:1003F000016841F00101016000F066FA074603263A
:1004000005E000BF00F060FAC01B0A2863D820682E
:100410004068C007F6D020684168C90768D0A16964
:10042000012901683FD021F080010160E0690128C5
:10043000206801683AD021F040010160206A01285B
:100440002068016835D021F020010160606A012830
:100450002068016830D021F010010160A06A0128F5
:10046000206801682BD021F008010160E06A0128B2
:100470002068016826D021F004010160D4E902015E
:100480000843D4E90412114308436168491E084334
:100490002168C8612068016821F00101016000F055
:1004A00013FA07461CE041F08001BEE741F040012D
:1004B000C3E741F02001C8E741F01001CDE741F06A
:1004C0000801D2E741F00401D7E700BF00F0FCF9D2
:1004D000C01B0A2804D904F83C6F0320657077E735
:1004E00020684068C007F1D120684068C00703D089
:1004F000042084F83C006AE72564012084F83C006D
:10050000002065E700B500680D4987B0884215D125
:100510000C480021026842F000720260006802226A
:1005200000F0007005900320CDE90210CDE9000233
:10053000092004906946044800F0EEF807B000BDB9
:100540000064004040380240000C02402DE9F05F9A
:100550000E46016804468868400105D48868000199
:1005600002D48868C0006FD594F83D0001280CD0F3
:10057000012784F83D7094F83C00222808D03228E6
:1005800008D062280ED0122005E00220BDE8F09FBE
:10059000422000E0522084F83C008868400103D5E6
:1005A000002507E07220F6E78868000101D50125E3
:1005B00000E002254FF4C07000EB05100A5802F06D
:1005C00001020A50216B8A68EAB3D4F800C05CF8D3
:1005D00000301343CA68496842EAC1010B434CF832
:1005E0000030216B0A7C02F00F020A614FF4C271E5
:1005F000226801EB0511535823F00F035350226872
:100600005358D4F830C0DCF810C043EA0C03535000
:10061000216B4FF4C47303EB05130A7DD1F8151059
:1006200042EA01222168CA50216B4FF4C67303EBE2
:1006300005130A7ED1F8191042EA01222168CA5036
:1006400021680A5801E00DE05AE042F001020A5028
:1006500000F03AF981464FF00008DFF8B0A0DFF86B
:10066000B0B026E022681358D1F80CC0098843EADC
:100670000C0343EA41511150B3E7701C19D02EB15D
:1006800000F022F9A0EB0900B04212D9032084F84F
:100690003C004DB1012D09D04FF400002168886065
:1006A00084F83D80032071E78020F7E74FF4004095
:1006B000F4E7ADB12068012D816816D01548884354
:1006C0000028DAD194F83C00422811D0522811D0E9
:1006D000722813D084F83C7084F83D80002055E7E0
:1006E000206881682AEA0100EAE72BEA0100E7E7CF
:1006F000222000E0322084F83C00EDE76220FAE797
:10070000042084F83C00012040E7000003000004BE
:1007100000030008000003102DE9F84FDFF874B162
:1007200000224FF001084FF0030A4FF00F090BF1C0
:10073000040E00BF0B6808FA02F42340A3426ED1F6
:100740004D68022D01D0122D0ED1D50800EB850C7D
:10075000DCF820505607F70E09FA07F6B5430E6984
:10076000BE402E43CCF82060066855000F790AFA87
:1007700005FC07F0030726EA0C06AF403743076085
:100780004E68012E05D0022E03D0112E01D0122E5C
:100790000ED18668CF6826EA0C06AF4037438760E3
:1007A0004668A6430C79C4F3001494403443446073
:1007B000C4688E6824EA0C04AE402643C6604C68C8
:1007C000E40060D5344C256845F4804525602468F4
:1007D00022F0030504F480440094304C2E19D6F81E
:1007E000084895072F0F09FA07F5AC432C4DA8428E
:1007F00001D100251FE02B4DA84201D101251AE0AF
:10080000294DA84201D1022515E0284DA84201D169
:10081000032510E0264DA84202D104250BE032E06A
:10082000244DA84201D1052505E0234DA84201D160
:10083000062500E00725BD402543C6F80858DBF82B
:1008400000405D464E689C43F60300D51C432C6077
:10085000DEF8004075464E689C43B60300D51C4345
:100860002C600C4D08352C684E689C43F60200D570
:100870001C432C60074D0C352C684E689C43B60217
:1008800000D51C432C60521C102AFFF453AFBDE866
:10089000F88F0000003C0140443802400030014025
:1008A000000002400004024000080240000C024028
:1008B0000010024000140240001802400AB1816199
:1008C00070470904FBE7000001480068704700001A
:1008D0000400002002480168491C016070470000C4
:1008E000040000200B4810B5016841F4007101605C
:1008F000016841F480610160016841F48071016028
:10090000032000F069F8002000F006F800F018F865
:10091000002010BD003C024010B5044607484FF4CB
:100920007A710068B0FBF1F000F01BFB0022214659
:10093000501E00F031F8002010BD00000000002023
:1009400010B5032000F048F8002211466FF00B00AC
:1009500000F022F8002211466FF00A0000F01CF8A7
:10096000002211466FF0090000F016F8002211462F
:10097000501F00F011F800221146101F00F00CF873
:1009800000221146901E00F007F80022BDE810403A
:100990001146501EAFF30080F0B40E4B1B680C469E
:1009A000C3F30223C3F10705042D00D90425191D43
:1009B000072901D2002300E0DB1E012606FA05F11B
:1009C000491E214099409E40761E16403143F0BC9E
:1009D00000F056BB0CED00E0064900F00702086885
:1009E0004FF6FF03184040EA0220034A1043086014
:1009F000704700000CED00E00000FA052DE9F84317
:100A00001748016841F0805101600068154F00F0FF
:100A10008050012600903E64FFF756FF05464FF4D4
:100A20007A78114C05E000BFFFF74EFF401B4045B0
:100A30000DD86068C003F7D57E64FFF745FF054613
:100A4000464607E0FFF740FF401BB04202D90320B3
:100A5000BDE8F88360688003F4D50020F8E7000063
:100A60004038024000000E42007000402DE9F0477F
:100A70000E46050065D0DFF81481D8F80000F7B203
:100A800000F00F00B04207D288F80070D8F80000DC
:100A900000F00F00B04254D128683D4C810712D5B8
:100AA000400703D5206840F4E05020602878000714
:100AB00003D5206840F4604020602068A96820F0D9
:100AC000F000084320602878C0072DD030496868BE
:100AD0000839012812D0022813D0032811D0096840
:100AE000890700292DDA216821F0030101432160E3
:100AF000FFF7EAFE814641F2883A0EE00968890371
:100B0000EFE709688901ECE7FFF7DEFEA0EB0901DA
:100B1000514502D90320BDE8F0872068696800F0DC
:100B20000C00B0EB810FEFD1D8F80010404601F077
:100B30000F01B14207D90770006800F00F00B04202
:100B400001D00120E7E72878400705D52068E9684B
:100B500020F4E050084320602878000706D520687C
:100B6000296920F4604040EAC100206000F01CF8D0
:100B70002168084AC1F30311515CC8400649086066
:100B80000020FFF7C9FE0020C5E70000003C02403E
:100B90000838024074120008000000200148006874
:100BA0007047000000000020224810B5006810F0D7
:100BB0000C02214815D04110042A11D01D4C241FCD
:100BC000082A0FD00C2A0CD12268236802F03F02B9
:100BD0005B0221D52068C0F38810A0FB010120E052
:100BE000084610BD2268236802F03F025B0205D56B
:100BF0002068C0F38810A0FB010104E02168C1F364
:100C00008811A1FB00010023FFF7F8FA2168C1F366
:100C10000141491C49000AE02168C1F38811A1FB88
:100C200000010023FFF7EAFA2168C1F30271B0FB6B
:100C3000F1F010BD083802400024F4002DE9F84F0F
:100C40000546DFF8F0A20078AAF10407C007A7F173
:100C5000040451D0DAF800105046C1F38101012993
:100C60000FD00168C1F38101022902D1396849021C
:100C700007D40068C0F38100032809D13868400216
:100C800006D52068800337D56868002872D033E025
:100C90006868B0F5803F10D0B0F5A02F206810D064
:100CA00020F480302060206820F480202060686874
:100CB000A8B1FFF709FE06460DE0206840F4803039
:100CC000F4E740F480202060F7E700BFFFF7FCFD69
:100CD000801B642875D820688003F7D50CE0FFF7E7
:100CE000F3FD064605E000BFFFF7EEFD801B64281C
:100CF000F0D820688003F7D42878DFF83C8280079A
:100D00004FF0010B4FF0000944D5DAF800105046BF
:100D100011F00C0F0FD00168C1F38101022902D13B
:100D20003968490207D50068C0F38100032809D15A
:100D30003868400206D42068800713D5E868012887
:100D400018D10FE0E868B0B1C8F800B0FFF7BCFDFB
:100D5000064604E0FFF7B8FD801B0228BAD82068D9
:100D60008007F7D52068296920F0F80040EAC10023
:100D700020600FE0DBE0C8F80090FFF7A5FD064615
:100D800005E000BFFFF7A0FD801B022819D82068EE
:100D90008007F7D42878000724D56848696989B1A5
:100DA000C0F800B0FFF790FD064604E0FFF78CFDA9
:100DB000801B022805D85F486C3000688007F5D595
:100DC00010E07AE0C0F80090FFF77EFD064604E0F0
:100DD000FFF77AFD801B02286FD856486C300068F8
:100DE0008007F5D42878400753D552483830016839
:100DF00041F080510160006800F080500090504840
:100E0000016841F480710160FFF75EFD064604E071
:100E1000FFF75AFD801B02284FD849480068C005DB
:100E2000F6D5444EA868683601280FD005283068EA
:100E300010D020F001003060306820F004003060F5
:100E4000A868B8B1FFF740FD00900FE0306840F0AF
:100E50000100F4E740F004003060F7E7FFF734FDED
:100E60000099411A41F28830814258D83068800791
:100E7000F4D50EE0FFF728FD009007E0FFF724FD12
:100E80000099411A41F28830814248D83068800781
:100E9000F4D4A86998B3DAF80010C1F381010229EB
:100EA00045D00228C8F8609003D0FFF70DFD054635
:100EB00038E0FFF709FD064605E030E0FFF704FDE6
:100EC000801B02282BD820688001F7D4F5E90701A0
:100ED0000843E9681B4A490802EB0141AA6841EA54
:100EE00082110843297C40EA0160297D40EA0170B3
:100EF0003860C8F860B0FFF7E7FC054605E014E08D
:100F0000FFF7E2FC401B022809D820688001F7D5D2
:100F10000BE000BFFFF7D8FC401B022802D90320DA
:100F2000BDE8F88F20688001F4D40020F8E70120A4
:100F3000F6E700000838024000004742800E4742B2
:100F4000007000400000FFFF4FF0E0210428086916
:100F500003D020F004000861704740F00400FAE775
:100F6000704710B5401EB0F1807F01D3012010BD45
:100F70004FF0E02460610F21601700F081F800203D
:100F8000A06107202061002010BD10B5FFF7E8FF29
:100F900010BDFEE710B51B488AB019490160A0F1E9
:100FA000400101631C31416309210024C0E901149F
:100FB0004FF40031C0E9034144618461C4610462BB
:100FC00044628462C462FFF7F9F908B1E92112E0D2
:100FD0000120CDE906400394089004940E20059466
:100FE000099000940194029469460648FFF76AF953
:100FF000002803D0FB2104A000F0EAF80AB010BDDD
:1010000000640040480000202E2E2F5372632F6D85
:1010100061696E2E6300000030B5164887B0002469
:10102000016841F080010160016801F080010591D3
:10103000016841F008010160016801F008010591B3
:10104000016841F00201016000680B4D00F00200F0
:101050000590002240212846FFF730FC40200090F8
:101060000120CDE90104694628460394FFF754FBAB
:1010700007B030BD3038024000040240FEE7704740
:101080000907090E002806DA00F00F0000F1E02041
:1010900080F8141D704700F1E02080F800147047BC
:1010A0007047704710B5FFF715FCBDE81040FFF71B
:1010B0006CBF000030B52A4893B00025016841F0AC
:1010C00080510160006800F080501290254801684E
:1010D00041F4404101600068022400F44040129055
:1010E00001200090000401908001CDE90640082015
:1010F00008904FF4B470CDE909040B9468460C9441
:10110000FFF79CFD08B1AC2114E0FFF777FC08B1B4
:10111000B3210FE00DA90F2081E831004FF4A0505A
:1011200010904FF48050119005210DA8FFF79EFC00
:1011300018B1C1210CA000F04BF8FFF72FFD4FF4C0
:101140007A71B0FBF1F0FFF70CFF0420FFF7FCFE13
:1011500000221146501EFFF71FFC13B030BD0000E7
:1011600040380240007000402E2E2F5372632F6DC6
:1011700061696E2E630000001048016841F470013F
:1011800001600F48016841F0010101600C4A002133
:101190000832116002680B4B1A400260031D0A4AB4
:1011A0001A60026822F48022026005480C30016057
:1011B00002495806803908607047000088ED00E059
:1011C00000380240FFFFF6FE10300024FEE700006A
:1011D000034C012240212046FFF770FBF9E7000095
:1011E0000004024002E008C8121F08C1002AFAD118
:1011F00070477047002001E001C1121F002AFBD197
:1012000070470000FFF76EFBFFF754FFFFF704FF86
:10121000FFF7C0FE164C4FF488700127216BCA25DA
:101220004FF002080860216B00204FF00309C860EE
:10123000216B4FF0040A8860216B0820FE260861AC
:10124000206B0775216B81F81580216B81F8169052
:10125000216B81F817A0206B0A210576206B46765A
:10126000206B8576206BC6760148FFF76FF9E7E7BC
:1012700048000020000000000000000001020304FC
:1012800006070809A412000800000020080000005A
:10129000E4110008AC1200080800002088040000D7
:0C12A000F41100080024F400000000001D
:04000005080001C529
:00000001FF
